:020000040800F2
:1000000040150020A101000835220008250D000838
:100010003122000887020008713B00080000000040
:10002000000000000000000000000000D5230008D0
:10003000CD04000800000000392200084124000817
:10004000BB010008BB010008BB010008BB010008A0
:10005000BB010008BB010008BB010008BB01000890
:10006000BB010008BB010008BB010008BB01000880
:10007000BB010008BB010008BB010008BB01000870
:10008000BB010008BB010008BB010008BB01000860
:10009000BB010008BB010008BB010008BB01000850
:1000A000BB010008BB010008BB010008BB01000840
:1000B000BB010008BB01000875250008BB01000852
:1000C000BB010008BB010008BB010008BB01000820
:1000D000BB010008BB010008BB010008BB01000810
:1000E000BB010008BB010008BB010008BB01000800
:1000F000BB010008BB010008BB010008BB010008F0
:10010000000000000000000000000000BB0100082B
:10011000BB010008BB010008BB010008BB010008CF
:10012000BB010008BB010008BB010008BB010008BF
:10013000BB010008BB010008000000000000000037
:10014000BB010008BB010008BB0100080000000063
:10015000000000000000000000000000000000009F
:100160000000000000000000BB010008BB01000807
:10017000BB010008000000000000000000000000BB
:1001800000000000BB010008DFF810D000F03EF8CE
:1001900000480047953B0008AFF300804015002061
:1001A0000648804706480047FEE7FEE7FEE7FEE711
:1001B000FEE7FEE7FEE7FEE7FEE7FEE76125000853
:1001C0008901000840EA01039B0703D009E008C940
:1001D000121F08C0042AFAD203E011F8013B00F80C
:1001E000013B521EF9D27047D2B201E000F8012B58
:1001F000491EFBD270470022F6E710B513460A46A7
:1002000004461946FFF7F0FF204610BD064C074D87
:1002100006E0E06840F0010394E8070098471034D6
:10022000AC42F6D3FFF7B4FFE43C0008043D0008FD
:1002300070B58C1810F8015B15F0070301D110F8A8
:10024000013B2A1106D110F8012B03E010F8016BD5
:1002500001F8016B5B1EF9D12B0705D40023521E58
:100260000DD401F8013BFAE710F8013BCB1A921CC0
:1002700003E013F8015B01F8015B521EF9D5A142BE
:10028000D8D3002070BD00BFFEE7000070B5024665
:100290000B46002113E012F8210006068800401CDE
:1002A000105C46EA00468800801C105C46EA00208C
:1002B0008E00F61C965D30431B4E3060491CB1EB3E
:1002C000930FE8D303F0030050B303F003000128B9
:1002D00004D112F82100144E3668307003F0030088
:1002E000022809D18800401C105C12F8216040EA05
:1002F00006250D480468258003F0030003280FD16C
:100300008800401C105C12F8216040EA062506486F
:10031000046825808800801C105C034E36683070AD
:100320000148006870BD0000003002402DE9FE4128
:100330000446FF27002000900026804601900025FB
:1003400023E01E4850F825000290002000906A46E5
:1003500001A9029802F046FA012815D10098B0428E
:1003600012D31748C068019988420DD81448806894
:100370000199884208D3124840690099884203D302
:100380002F46009EDDF804806D1C0E4800688542F3
:10039000D7D3FF2F0FD00A48006860604FF47A70FF
:1003A00070430199B0FBF1F0A06005484069E0603E
:1003B0002661C4F800803846BDE8FE8104110020A3
:1003C00028000020B4010020F8B50B4600240025C9
:1003D0000021022600271760394F3F6800971EB1A1
:1003E000384F3F68B84221D3176827F0E04707F13C
:1003F00080571760009FD2F800C067F3932CC2F8B3
:1004000000C0314F3F684FF00A0CB7FBFCFC176887
:100410006CF309071760176827F0806707F180679A
:100420001760176827F000771760F8BD471CD2F8EF
:1004300000C067F31E7CC2F800C0176827F0807701
:1004400007F1807717601E4F57F8207000971C68DF
:100450009968009FBF0F87BB1B4F3F688F4202D236
:10046000194F3F6800E00F46394601FB04F74FF48F
:100470007A7CB7FBFCF50A27B1FBF7FC17686CF335
:10048000932717600A27B1FBF7FC17686CF309077D
:1004900017600D4F3F69AF420FD90B4F3F684FF0C8
:1004A0000A0CB7FBFCFC17686CF3090717601768A8
:1004B00027F0806707F18067176000BFB5E700008D
:1004C00004110020B401002028000020704772B6FB
:1004D00000BFFEE72DE9F04104460D460027002647
:1004E00005E0284600F047F80744701CC6B2A64253
:1004F000F7DBB7FBF4F01FFA80F84046BDE8F08167
:1005000070B504460D460026044800EB04108168CF
:100510002846884700B10126304670BDDC00002027
:1005200010B50249142000F0FFFB10BD0800900C2C
:1005300010B50249142000F0F7FB10BD1000C010E8
:1005400010B50249142000F0EFFB10BD2000F0149C
:1005500010B50249142000F0E7FB10BD0008302E52
:1005600010B50249142000F0DFFB10BD0400600844
:1005700041F28830704770B504460025062C1CD225
:10058000DFE804F003070B0F1317FFF7F1FF054631
:1005900014E0FFF7E5FF054610E0FFF7D9FF054639
:1005A0000CE0FFF7CDFF054608E0FFF7B9FF054671
:1005B00004E0FFF7BDFF054600E000BF00BF28468E
:1005C00070BD000070B5044600F016F90546B4F1A0
:1005D000FF3F02D004480078044400F00DF9401BAE
:1005E000A042FAD370BD0000240200202DE9F84F8C
:1005F00000220B68002B7CD0DFF8F0A1DFF8E89137
:100600004FF0010E03274FF00F080AF1040B0B689F
:100610000EFA02F42340002B6CD091F804C00CF0C9
:10062000030CBCF1010F02D0BCF1020F18D1856898
:100630004FEA420C07FA0CF6B543CE6806FA0CFCFA
:100640004CEA050CC0F808C0D0F804C02CEA040C31
:100650000C79C4F30014944044EA0C0CC0F804C0B4
:10066000D1F804C037EA0C0C0CD0C4684FEA420C35
:1006700007FA0CF5AC438D6805FA0CFC4CEA040C47
:10068000C0F80CC091F804C00CF0030CBCF1020FD0
:1006900012D14FEAD20C00EB8C04256A4FEA427C5F
:1006A0004FEADC6C08FA0CF6B5430E6906FA0CFC4E
:1006B0004CEA050CC4F820C004684FEA420C07FA63
:1006C0000CF5AC430D7905F0030505FA0CFC4CEA7A
:1006D000040CC0F800C0D1F804C01CF4403F6DD039
:1006E000D9F818C04CF0010CC9F818C0D9F818C0D6
:1006F00001E068E062E00CF0010CCDF800C022F0EF
:10070000030C0CF1804505F58035D5F808C0940739
:10071000240F08FA04F62CEA0606B0F1904F57D0E1
:10072000A0F1904CBCF5806C4FD0A0F1904CBCF582
:10073000006C50D0A0F1904CBCF5406C4ED0A0F1B4
:10074000904CBCF5805C4CD04FF0050C0CFA04FCCE
:100750004CEA060CC5F808C0DAF800C02CEA030C15
:100760004C6814F4803F01D04CEA030CCAF800C076
:10077000DBF800C02CEA030C4C6814F4003F01D0F5
:100780004CEA030CCBF800C0194CD4F800C02CEA9A
:10079000030C4D6815F4801F01D04CEA030CC4F81B
:1007A00000C0144CD4F800C02CEA030C4D6815F4BA
:1007B000001F01D04CEA030CC4F800C0521C0B68A7
:1007C000D3407FF424AFBDE8F88F4FF0010CBDE7B4
:1007D0004FF0000CBAE74FF0020CB7E74FF0030CF4
:1007E000B4E74FF0040CB1E70010024000040140F0
:1007F000080401400C040140014880687047000073
:100800002402002002488168027811448160704708
:100810002402002010B50748016841F01001016072
:10082000032000F08FF8002000F006F800F026F812
:10083000002010BD0020024070B504460D4D4FF45D
:100840007A712878B1FBF0F00B490968B1FBF0F040
:1008500000F08AF808B1012070BD102C07D20022E8
:100860002146501E00F03AF86C60002070BD012057
:1008700070BD0000240200202002002008B500BF47
:100880000E48806940F001000C4988610846806983
:1008900000F00100009000BF00BF00BF0846C06923
:1008A00040F08050C8610846C06900F08050009058
:1008B00000BF00BF072000F045F808BD001002404F
:1008C00000280ADB00F01F01012202FA01F14009B1
:1008D000800000F1E020C0F80011704710B4184B00
:1008E0001B68C3F30223C3F1070CBCF1040F01D949
:1008F0004FF0040C1C1D072C01D2002300E0DB1E6E
:10090000012404FA0CFCACF1010C0CEA0101994041
:1009100004FA03F35B1E1A401143002806DB00F1C2
:10092000E020090180F8001410BC704700F00F00AF
:1009300000F1E020090180F8141D10BC7047000090
:100940000CED00E000F00700064A11684FF6FF03C7
:10095000194041EA002040F0FD7040F080601060D6
:10096000704700000CED00E0401EB0F1807F01D325
:10097000012070474FF0E0214861044AF0201070D8
:1009800000208861072008610020704723ED00E007
:10099000F0B490F83C20012A3CD0012480F83C407F
:1009A000022280F83D2003685A68D3F808C01B4D26
:1009B0001B4EAB4201D0B34203D122F470024F6808
:1009C0003A4322F070020F683A435A600268AA4222
:1009D00013D0B2F1804F10D0A2F18043B3F5806301
:1009E0000BD0A2F18043B3F5006306D0B24204D02D
:1009F000A2F18043B3F5A03304D12CF080038968C1
:100A00001943916080F83D40002180F83C10F0BC13
:100A100000207047F0BC022070470000002C01400D
:100A20000034014010B50446002C03D094F83D007A
:100A300010B107E0012010BD002084F83C002046E2
:100A400000F022F8022084F83D00211D206801F00A
:100A50009DFD012084F8480084F83E0084F83F00A2
:100A600084F8400084F8410084F8420084F8430090
:100A700084F8440084F8450084F8460084F8470070
:100A800084F83D00002010BD10B586B00446142146
:100A900001A8FFF7B0FB1B492068884230D100BF96
:100AA0001948C06940F004001749C8610846C06988
:100AB00000F00400009000BF00BF00BF084640697E
:100AC00040F4801048610846406900F480100090AE
:100AD00000BF00BF4FF44050019002200290002060
:100AE000039004900220059001A90848FFF77EFDBD
:100AF000002211461E20FFF7F1FE1E20FFF7E0FE48
:100B000006B010BD0008004000100240000C004874
:100B100070B50446002594F83C0001281AD001263F
:100B200084F83C60022084F83D002068826822F04E
:100B3000770222F4803222F47F42826008685028D3
:100B400039D00EDC202854D006DC002851D01028E3
:100B500011D14EE0022070BD30284AD040280AD181
:100B60003DE0602831D070280DD0B0F5805F03D013
:100B7000B0F5005F13D0012584F83D60002084F8B3
:100B80003C00284670BDCB684A688968206801F03F
:100B900055FD2068816841F077018160ECE7CB6802
:100BA0004A688968206801F049FD2068816841F43D
:100BB00080418160E0E7CA684968206801F051FD22
:100BC0005021206801F045FDD6E7CA6849682068D1
:100BD00001F097FD6021206801F03BFDCCE7CA6879
:100BE0004968206801F03DFD4021206801F031FD99
:100BF000C2E722680146104601F02BFDBCE770B544
:100C000005460C46002695F83C0001280FD001202F
:100C100085F83C006AB1042A1CD0082A2CD00C2A82
:100C20003BD00126002085F83C00304670BD0220F4
:100C300070BDE36862682168286801F025FD2868B6
:100C4000816921F00C01816128688169A2681143E2
:100C50008161E7E7E36862682168286801F063FD65
:100C60002868816921F44061816128688169A268EE
:100C700041EA02218161D5E7E3686268216828685A
:100C800001F071FD2868C16921F00C01C16128687B
:100C9000C169A2681143C161C4E7E3686268216861
:100CA000286801F07EFD2868C16921F44061C161B6
:100CB0002868C169A26841EA0221C161B2E710B5A2
:100CC0000446002C03D094F83D0010B107E0012049
:100CD00010BD002084F83C00204600F022F80220DD
:100CE00084F83D00211D206801F050FC012084F8AB
:100CF000480084F83E0084F83F0084F8400084F8FF
:100D0000410084F8420084F8430084F8440084F8E9
:100D1000450084F8460084F8470084F83D00002030
:100D200010BD704700BFFEE72DE9F04106460C46B6
:100D300000274148844208D04048844205D04048BA
:100D4000844202D03F48844230D1224606213E48A8
:100D500000F07BF93C4800F001F900BF3A4800F090
:100D60002DF90128FAD1384800F0A8F900250BE048
:100D700000BF354800F027F90028FAD000BF3248FC
:100D8000006C80B207446D1CB542F1D32E4800F0D0
:100D90009DF900BF2C4800F053F90028FAD12A48E9
:100DA00000F0D4F81F202849086035E02748844225
:100DB00002D0274884422FD122460621254800F040
:100DC00044F9244800F0CAF800BF224800F0F6F8C1
:100DD0000128FAD11F4800F071F900250BE000BF8F
:100DE0001C4800F0F0F80028FAD000BF1948006C49
:100DF00080B207446D1CB542F1D3164800F066F985
:100E000000BF144800F01CF90028FAD1114800F086
:100E10009DF81F200F490860B7FBF6F00E490880C7
:100E20000846008840F6B8314843000B0B4908805B
:100E300008460088BDE8F0810800900C1000C01042
:100E40002000F0140008302E000100500010603225
:100E500004006008000400505A0000205C000020DC
:100E600002480068401C0149086070471C020020CD
:100E700010B50848007850B1FFF7BEFC0649096874
:100E8000401A06490968884201D9012010BD002096
:100E9000FCE700004C000020480000204400002037
:100EA00010B50848007850B1FFF7A6FC064909685C
:100EB000401A06490968884201D9012010BD002066
:100EC000FCE70000580000205400002050000020E3
:100ED00010B44FF0000C4A68A0F1A043B3F5407382
:100EE0000ED0164B9B6803F00103154CA46804F068
:100EF000010423437BB14FF0010C10BC60467047E6
:100F00004FF0A0439B6803F001030E4CA46804F06B
:100F100001042343EEE70C4B52B10C6822438C686A
:100F2000C9682143114382681A4011438160E4E794
:100F3000826809681A4011438160DEE700040050AE
:100F40000005005000010050E030FCFF8168024ABB
:100F50001140891C81607047C0FFFF7F8168024A91
:100F60001140491C81607047C0FFFF7F816821F0FC
:100F7000405181608168034A114041F08051816095
:100F800070470000C0FFFF7F0022836803F0010369
:100F9000002B02D0012210467047D1F804C00B6824
:100FA000896843EA0C03D0F80CC02CF0380C2CF400
:100FB000804C41EA0C011943C160ECE70146086826
:100FC00000F00100704701460868C0F380007047D8
:100FD00030B400234A68D0F808C00CF0010CBCF112
:100FE000000F03D0012330BC18467047DFF84CC017
:100FF0007AB18C680A680D692243CC682C4322437D
:101000004C692243C46804EA0C0C42EA0C02C26038
:101010000CE0CC680A684D6922430C692C432243DA
:10102000C46804EA0C0C42EA0C02C2604968026B14
:1010300022F00F0211430163D5E700003CC0F0FF2E
:1010400001468868C0F38000704770B501F44074B1
:101050004FF4407595FAA5F5B5FA85F5EC4000F129
:10106000300505EB84031C6801F01F061F25B54001
:10107000AC4301F01F06C2F38465B5402C431C60ED
:1010800070BD70B501F440744FF4407595FAA5F544
:10109000B5FA85F5EC4000F1300505EB84031C68DA
:1010A00001F01F061F25B540AC4301F01F06C2F337
:1010B0008465B5402C431C6070BD00008168024A05
:1010C0001140091D81607047C0FFFF7F8168034A9E
:1010D000114041F01001816070470000C0FFFF7FA8
:1010E00070B501F000744FF0007595FAA5F5B5FAEA
:1010F00085F5EC4000F1140505EB84031C6801F054
:10110000F8754FF0F87696FAA6F6B6FA86F6F54038
:101110000726AE40B44301F0F8754FF0F87696FA22
:10112000A6F6B6FA86F6F54002FA05F52C431C60E1
:1011300070BD000070B5D0F8B030074C0C40A34330
:10114000054C0C4002F01806034DF5402C4023439B
:10115000C0F8B03070BD0000FEFF070008B50549BB
:1011600049690143034A51611146496901400091AF
:1011700000BF08BD0010024008B50549C969014318
:10118000034AD1611146C9690140009100BF08BD01
:101190000010024010B400220368DB0F002B03D0C4
:1011A000012210BC10467047D1F804C00B68CC680F
:1011B00043EA0C03D1F808C04CEA040C43EA0C03E0
:1011C000D1F810C043EA0C03D1F814C0896943EA8E
:1011D0000C0319430368DFF80CC003EA0C0319433E
:1011E0000160DEE70343F0FF10B5026801F0100470
:1011F0000423A3409A43026010BD30B40024536816
:1012000001F010014FF0010C05680CFA01FC3CEAFA
:10121000050C07D0A446BCF1000F06D001242046DF
:1012200030BC70474FF0010CF5E7A3B1D2F800C015
:101230004CEA0303D2F808C0D2684CEA02021A430F
:1012400003688A4040F6FA7C0CFA01F123EA0101B6
:1012500011430160E3E703684FF0FA0C0CFA01FC5C
:1012600023EA0C03D2F800C0D2684CEA020202FA68
:1012700001F119430160D2E770B40022644D037A92
:10128000DFF890C12E1F0168ACF10404002B78D068
:1012900089B1437A43B3012B2FD0022B36D00122E0
:1012A000817A41B15C4D2B1F012937D002293FD0F3
:1012B000032947D001224168002978D0437A002BC6
:1012C00049D0012B52D0022B5CD00122817A002917
:1012D0006DD0524B0129A3F1040C5DD0022967D0D7
:1012E000032972D0012290E02B6823EA01012960D2
:1012F0000168336819433160D2E7336823EA01019A
:10130000316001682B6819432960C9E733681943C4
:10131000316001682B6819432960C1E701682E68B4
:1013200026EA0101296001681D6829431960C2E7A6
:1013300001681E6826EA0101196001682B681943DB
:101340002960B8E701681E683143196001682B689D
:1013500019432960AFE7DCF8003023EA0101CCF83B
:1013600000104168236819432160AFE7236823EA2E
:10137000010121604168DCF800301943CCF800100D
:10138000A4E72DE02368194321604168DCF80030B0
:101390001943CCF8001099E741681C6824EA010160
:1013A00019604068DCF800100843CCF800002CE01D
:1013B0004168DCF8004024EA0101CCF800104068E4
:1013C00019680843186020E0FFE74168DCF8004036
:1013D0002143CCF80010406819680843186014E0F5
:1013E000336823EA0101316001682B6823EA0101B7
:1013F00029604168236823EA010121604068DCF824
:10140000001021EA0000CCF8000070BC10467047C4
:1014100004040140240401400C0401402C04014058
:101420002DE9F0030A6892FAA2F3B3FA83F3DA40E3
:1014300076D001260F2503240A6806FA03FC02EA87
:101440000C02002A6DD0D1F804C0BCF1010F02D00B
:10145000BCF1020F25D1D1F808C0876892FAA2F832
:10146000B8FA88F84FEA480804FA08F827EA0807A3
:1014700092FAA2F8B8FA88F84FEA48080CFA08FC81
:1014800047EA0C0CC0F808C0D1F800C0CF68D0F80B
:10149000048028EA0C080CFB07FC48EA0C0CC0F896
:1014A00004C0D1F810C0C76892FAA2F8B8FA88F858
:1014B0004FEA480804FA08F827EA080792FAA2F85F
:1014C000B8FA88F84FEA48080CFA08FC47EA0C0C0E
:1014D000C0F80CC0D1F804C0BCF1020F3DD192FAA3
:1014E000A2FCBCFA8CFCBCF1080F1BD2D1F814C0D2
:1014F000076A92FAA2F8B8FA88F84FEA880805FA5B
:1015000008F827EA080792FAA2F8B8FA88F84FEA2A
:1015100088080CFA08FC47EA0C0CC0F820C01CE054
:1015200036E030E04F69D0F824804FEA122C9CFA64
:10153000ACF9B9FA89F99CFAACFC4FEA8909BCFA12
:101540008CFC05FA09F94FEA8C0C28EA090807FA1D
:101550000CFC48EA0C0CC0F824C0D1F804C00768A1
:1015600092FAA2F8B8FA88F84FEA480804FA08F89C
:1015700092FAA2F2B2FA82F2520027EA08070CFAB3
:1015800002F23A4302605B1C0A68DA407FF454AF0F
:10159000BDE8F003002070478162704781627047A8
:1015A000816170478161704730B5036891FAA1F499
:1015B000B4FA84F465000324AC40A34391FAA1F487
:1015C000B4FA84F4640002FA04F42343036030BDE7
:1015D00030B5036891FAA1F4B4FA84F465000324E9
:1015E000AC40A34391FAA1F4B4FA84F4640002FA83
:1015F00004F42343036030BD30B5C36891FAA1F40D
:10160000B4FA84F465000324AC40A34391FAA1F436
:10161000B4FA84F4640002FA04F42343C36030BDD6
:1016200010B5426921EA020302EA010443EA0443D5
:10163000836110BD0449C96A21EA104182B2114395
:10164000014AD162704700000010024010B5094AFB
:10165000CBB252F8232022EA11420B0C93FAA3F3E7
:10166000B3FA83F300FA03F31A43024BCCB243F804
:10167000242010BD080001400149086070470000A7
:10168000200200204FF400703A4A516920EA01021A
:1016900001EA000342EA0342364B9A6100BF364832
:1016A00000683649364A126841F82200344800681A
:1016B000002859D008463249096850F821103048AE
:1016C0000068401E2D4A52F82000814215D22C4855
:1016D0000068401E114651F820004FF6FF71081AAD
:1016E0001146274A126851F8221001442448006824
:1016F000401E224A42F8201010E020482049096884
:1017000050F821101E480068401E1C4A52F8200064
:10171000091A1B480068401E42F82010184800684B
:10172000401E164951F82000B0F5827F1CD915489B
:101730000078401C1349087008460078012813DD22
:101740000D482838006820F002000B49283908604D
:101750000846006820F00200086001200A4908706D
:10176000074800680949086005480068401C0449AA
:10177000086070470008004834080040300200202C
:101780001000002018000020A401002014000020F8
:10179000F0B503461446012901D1002520E00429B3
:1017A00001D101251CE0102901D1022518E04029B2
:1017B00001D1032514E0B1F5807F01D104250FE0AC
:1017C000B1F5806F01D105250AE0B1F5805F01D147
:1017D000062505E0B1F5803F01D1072500E0082589
:1017E0002846094D2E5C03F1180572191568074E3D
:1017F000375C0326BE40B543260C044F3F5CBE4019
:1018000035431560F0BD0000B73C0008C93C000836
:10181000F0B503461446012901D1002520E0042932
:1018200001D101251CE0102901D1022518E0402931
:1018300001D1032514E0B1F5807F01D104250FE02B
:10184000B1F5806F01D105250AE0B1F5805F01D1C6
:10185000062505E0B1F5803F01D1072500E0082508
:101860002846094D2E5C03F1180572191568074EBC
:10187000375CF026BE40B543260C044F3F5CBE40AB
:1018800035431560F0BD0000B73C0008C93C0008B6
:1018900070B5012901D1002420E0042901D10124DF
:1018A0001CE0102901D1022418E0402901D10324B1
:1018B00014E0B1F5807F01D104240FE0B1F5806F11
:1018C00001D105240AE0B1F5805F01D1062405E0CD
:1018D000B1F5803F01D1072400E008242346046AC3
:1018E000054DEE5C0A25B540AC43034DED5C02FAB4
:1018F00005F52C43046270BDD23C0008F0B50346E8
:101900001446012901D1002520E0042901D1012537
:101910001CE0102901D1022518E0402901D103253E
:1019200014E0B1F5807F01D104250FE0B1F5806F9F
:1019300001D105250AE0B1F5805F01D1062505E05A
:10194000B1F5803F01D1072500E008252846094D63
:101950002E5C03F1180572191568074E375C0C26CA
:10196000BE40B543260C044F3F5CBE403543156076
:10197000F0BD0000B73C0008C93C00082DE9F001AB
:101980000268244BDFF890C0DFF89080244C984226
:1019900008D0B0F1804F05D0604503D0404501D05C
:1019A000A04203D14D6822F070022A431D4D1E4E05
:1019B0001E4F98420ED0B0F1804F0BD0604509D039
:1019C000404507D0A04205D0A84203D0B04201D084
:1019D000B84205D1D1F80CC022F4407242EA0C02A0
:1019E00002608A68C2620A888262984207D0A04276
:1019F00005D0A84203D0B04201D0B84201D1096954
:101A00000163416941F001014161BDE8F00100203D
:101A100070470000002C0140000400400008004016
:101A200000340140004001400044014000480140B2
:101A300010B590B000200D900E900F90182107A8BF
:101A4000FEF7D9FB182101A8FEF7D5FB4FF0805017
:101A5000FFF784FB4FF40030FFF780FB4FF40020CA
:101A6000FFF77CFBC020019003200290002005902E
:101A700001A94FF09040FFF7D3FC302001900320E4
:101A800002900020059001A92248FFF7C9FC002020
:101A90000D900E900F900DA91F48FFF775FA0020CA
:101AA0000790089009904FF400500A9001200B9085
:101AB00000030C9007A91848FFF78AFA002017497D
:101AC000896821F440310143144A916000BF1248F3
:101AD000FFF74CFA124800681249B0FBF1F000EB36
:101AE000800040000A21B0FBF1F400E0641E002CED
:101AF000FCD10D4A06210848FFF7C3FA00220A4923
:101B00000548FFF7EDFA7F2207490348FFF712FB6C
:101B100010B010BD00080048000100500003005044
:101B200020020020400D03000800900C10B594B076
:101B3000002011901290139018210BA8FEF75BFB68
:101B400000200790089009900A90182101A8FEF73C
:101B500052FB4FF00050FFF701FB4FF48020FFF7DE
:101B6000FDFA4FF40010FFF7F9FA0120019003206D
:101B700002900020059001A92748FFF751FC4FF47F
:101B800000700190032002900020059001A92348D5
:101B9000FFF746FC002011901290139011A92048E5
:101BA000FFF7F2F900200B900C900D904FF40050CD
:101BB0000E9001200F90000310900BA91848FFF71A
:101BC00007FA00200790089007A91648FFF780F948
:101BD0001348FFF7CBF9144800681449B0FBF1F043
:101BE00000EB800040000A21B0FBF1F400E0641E2D
:101BF000002CFCD10E4A06210948FFF742FA0022C8
:101C00000B490748FFF76CFA7F2209490448FFF7A0
:101C100091FA14B010BD0000000400480010004804
:101C2000000400500007005020020020400D030077
:101C30000400600800B58DB01C2106A8FEF7DBFA91
:101C400018216846FEF7D7FA4FF40030FFF786FAFE
:101C500002200090032001900020049069464FF07C
:101C60009040FFF7DDFB4FF40060009002200190F0
:101C700000200290039004900820059069464FF0E0
:101C80009040FFF7CDFB0020069007904020089081
:101C9000002009904FF420500A9000200B900C90E7
:101CA00006A90248FFF776FA0DB000BD1C000140FE
:101CB00000B58DB01C2106A8FEF79DFA18216846D4
:101CC000FEF799FA4FF40030FFF748FA0820009029
:101CD000032001900020049069464FF09040FFF7E8
:101CE0009FFB4FF480500090022001900020029052
:101CF000039004900820059069464FF09040FFF74C
:101D00008FFB002006908020079040200890002044
:101D100009900A900B900C9006A90748FFF73AFA31
:101D200000200549096821F400710143024A11604D
:101D300000BF0DB000BD00002000014010B54020E4
:101D4000FFF70CFA20201049896821F06001014357
:101D50000D4A916000BF80201146896821F0800102
:101D60000143916000BF4FF0FF301146086100BF92
:101D70000648486100BF0020896821F0180101432E
:101D8000916000BF10BD000000300240B71DC104CB
:101D900000B58BB000200790089009900A90182198
:101DA00001A8FEF728FA4FF00050FFF7E5F94FF4CD
:101DB0000030FFF7D3F9302001900320029000207B
:101DC000059001A94FF09040FFF72AFB38200790BB
:101DD000002008900A9007AA09490A48FFF70DFA5F
:101DE00007490848FFF700FA07AA07490548FFF71F
:101DF00004FA05490348FFF7F7F90BB000BD0000EE
:101E000001001002007400401200431500B589B0B3
:101E1000002006900790089018216846FEF7EBF91D
:101E20004FF40010FFF79AF94FF48000FFF796F98E
:101E30004FF40020FFF792F94FF40030FFF78EF9CE
:101E40004FF48020FFF78AF94FF48010FFF786F9EE
:101E500041F603616148FFF7A1FB4FF4E0614FF0E9
:101E60009040FFF79BFB40215D48FFF797FB0F2059
:101E7000009000200190049069465A48FFF7D0FA7C
:101E800041F6036000900120019000200290039031
:101E9000049069465148FFF7C3FA4FF4E0600090A0
:101EA00001200190002002900390049069464FF0B9
:101EB0009040FFF7B5FA40200090012001900020EB
:101EC00002900390049069464548FFF7A9FA4649F5
:101ED0000120FFF7BBFB45490120FFF7B7FB444951
:101EE0000120FFF7B3FB43490120FFF7AFFB0022BE
:101EF0004FF480514048FFF77FFB00224FF4005120
:101F00003D48FFF779FB00224FF480413A48FFF744
:101F100073FB00224FF400413748FFF76DFB0022AE
:101F20004FF480513448FFF753FB00224FF4005127
:101F30003148FFF74DFB00224FF480412E48FFF758
:101F400047FB00224FF400412B48FFF741FB4FF4C1
:101F5000805006900020079001208DF8200000207E
:101F60008DF8210002208DF8220006A8FFF784F9E1
:101F70004FF4005006900020079001208DF82000BB
:101F800000208DF8210002208DF8220006A8FFF71E
:101F900073F94FF4804006900020079001208DF8DF
:101FA000200000208DF8210002208DF8220006A8D4
:101FB000FFF762F94FF400400690002007900120DF
:101FC0008DF8200000208DF8210002208DF82200DD
:101FD00006A8FFF751F909B000BD0000000800484D
:101FE000001400480010004803000F000300F00038
:101FF0000300000F030000F0000400482DE9F04149
:102000008CB0142107A8FEF7F6F8182101A8FEF7F6
:10201000F2F80220FFF7B0F84FF48020FFF79EF8A7
:10202000102001900220029000200390049005905F
:102030000220069001A94C48FFF7F2F91D214B4BF5
:102040001B68C3F30220002425460346C3F1070C96
:10205000BCF1040F02D94FF0040C01E0C3F1070CEE
:10206000674603F1040CBCF1070F02D24FF0000CDD
:1020700001E0A3F1030C66464FF0010C0CFA07FCDB
:10208000ACF1010C0CEA040C0CFA06FC4FF0010850
:1020900008FA06F8A8F1010808EA05084CEA08025F
:1020A00000BF002904DB1007030E3148435407E04A
:1020B0001007040E2D480C3001F00F031B1FC454F1
:1020C00000BF1D20002809DB00F01F020121914004
:1020D0004209920002F1E022C2F8001100BF002084
:1020E000ADF81C0008904FF6FF70099000200A9090
:1020F00007A92048FFF742FC00BF1E48006840F0D7
:1021000080001C49086000BF002089681A4A1140FD
:102110000143184A916000BF00BF1146496821F091
:1021200070010143516000BF00BF1046806820F07D
:1021300080001146886000BF8A1301210D48FFF717
:1021400027FB002201210B48FFF7D8FB00220121C9
:102150000848FFF75DFB002201210648FFF798FBC6
:102160000CB0BDE8F0810000000400480CED00E078
:1021700000E400E000040040F8BFFEFF00B58BB0B3
:1021800000200790089009900A900490059006900E
:102190000090019002900390234824490860002099
:1021A00048600021214881604FF6FF71C160002125
:1021B000016180218161FEF735FC08B1FEF787F9E6
:1021C0004FF48050079007A91848FEF7A1FC08B10A
:1021D000FEF77DF91548FEF772FD08B1FEF777F9B5
:1021E00000200490069004A91048FEF7D1FB08B126
:1021F000FEF76DF900200090012001900020029070
:102200000390002269460948FEF7F9FC08B1FEF781
:102210005EF9042269460548FEF7F1FC08B1FEF7B5
:1022200056F90BB000BD0000000800400C0E002065
:1022300000BFFEE700BFFEE77047000010B50022B8
:1022400001214848FFF7B0F9012202214548FFF774
:10225000ABF902214348FFF7A3F9002204214148CA
:10226000FFF7A2F9002208213E48FFF79DF9502010
:10227000FEF7A8F903210A20FEF72CF93A49088055
:102280000846008840F2F371884203DD0120374997
:10229000087002E0002035490870012211463148DB
:1022A000FFF782F901212F48FFF776F90122022179
:1022B0002C48FFF779F902212A48FFF76DF96420CD
:1022C000FEF780F9012211462648FFF76DF901213A
:1022D0002448FFF761F9012202212248FFF764F93F
:1022E00002212048FFF75CF96420FEF76BF9032117
:1022F0000A20FEF7EFF81C49088008460088B0F570
:10230000967F03DD01201A49087002E00020184979
:1023100008704FF4C860FEF755F903210A20FEF754
:10232000D9F81149088008460088B0F5967F0DDA83
:102330000E4800780E490978084018B101200D496F
:10234000087006E000200B49087002E000200949EF
:1023500008700848007808B900F00EF80120054917
:10236000087010BD0010004840000020420000200E
:1023700043000020CC01002010B5002204210948B0
:10238000FFF712F9002208210648FFF70DF9002295
:1023900001210448FFF708F9002202210148FFF754
:1023A00003F910BD001000480020034908700349DC
:1023B0000870034908707047420000204300002065
:1023C000CC01002010B5FEF717FA0149086010BDD6
:1023D000480000207047000010B50446044804601F
:1023E000FEF70AFA0349086001200349087010BD8E
:1023F00044000020480000204C00002010B5044696
:1024000004480460FEF7F8F9034908600120034915
:10241000087010BD5000002054000020580000201B
:102420000020024908700249087070474C000020E3
:102430005800002000200149087070474C0000201F
:1024400010B5FEF70DFDFEF7DDF910BD10B5022049
:102450003E49096821F0070101433C4A116000BF71
:1024600000BF00BF3948006800F007000228F8D11B
:1024700000BF3748006840F480303549086000BF2D
:1024800000BF00BF32480068C0F340400028F8D0C9
:102490004FF480304FF4E0112D4A526822F4741248
:1024A00000F480330B431A43294B5A601A46D26A10
:1024B00060F30302DA6200BF00BF1846006840F014
:1024C00080701946086000BF00BF00BF2048006848
:1024D000C0F340600028F8D000201D49496821F071
:1024E000F00101431A4A516000BF101511464968B6
:1024F00021F4E0610143516000BF002011464968AA
:1025000021F460510143516000BF02201146496827
:1025100021F003010143516000BF00BF00BF0C4820
:10252000406800F00C000828F8D10A48FFF7A4F82A
:102530000020FEF781F908B1FDF7C9FF0648FFF753
:1025400079F80648FFF776F810BD00000020024039
:102550000010024000A24A040001F0010020003EE9
:102560000348006840F470000149086070470000AB
:1025700088ED00E010B500BF6FF00200024908616D
:1025800000BFFFF77FF810BD000800402DE9F00103
:102590000268234C234BDFF89080DFF890C0A04204
:1025A00008D0B0F1804F05D0984203D0404501D00B
:1025B000604503D122F070024D682A431C4D1D4E28
:1025C0001D4FA0420ED0B0F1804F0BD0984209D0E1
:1025D000404507D0604505D0A84203D0B04201D0A5
:1025E000B84203D122F44072CB681A434B6922F0FF
:1025F00080021A4302608A68C2620A688262A0424C
:1026000007D0604505D0A84203D0B04201D0B842FF
:1026100001D10969016301214161BDE8F001704701
:10262000002C01400004004000080040003401403C
:10263000004001400044014000480140D0F808C07B
:102640002CF47F4C42EA0322114341EA0C018160E1
:102650007047826822F07002114341F007018160E7
:102660007047036AD0F820C02CF0010CC0F820C0DD
:10267000D0F818C02CF0F00C4CEA021223F00A0338
:10268000194382610162704730B4D0F820C02CF049
:10269000010CC0F820C0D0F818C0046AA0F1804531
:1026A000B5F5963528D0B0F1804F25D0A0F1804502
:1026B000B5F5806520D0A0F18045B5F500651BD04B
:1026C000A0F18045B5F59A3516D0A0F18045B5F555
:1026D000A03511D04CF0010222F0F0024FF0F00CC6
:1026E0000CEA03131A4324F00A0301F00A01194308
:1026F0008261016230BC70472CF0030C4CEA02028C
:10270000EAE7036A23F010030362D0F818C0036AF3
:102710002CF4704C4CEA023223F0A00343EA01117E
:1027200082610162704710B4D0F820C02CF0100C08
:10273000C0F820C08469D0F820C024F4407444EA72
:10274000022222F470424FF4704404EA03331A4325
:102750002CF0A0034FF0A00C0CEA01111943826188
:10276000016210BC704710B4D0F820C02CF4807CFB
:10277000C0F820C0C469D0F820C024F0030422436C
:1027800022F0F002F02404EA03131A432CF420632D
:102790004FF4206C0CEA01211943C261016210BCA4
:1027A000704710B4D0F820C02CF4805CC0F820C072
:1027B000C469D0F820C024F4407444EA022222F410
:1027C00070424FF4704404EA03331A432CF420435C
:1027D0004FF4204C0CEA01311943C261016210BC74
:1027E000704700002DE9FC4F05460E4617460020B5
:1027F00001900095002482460098800F50BB0098FD
:10280000C0F3892C0098C0F3090800211FE04FF0A5
:102810000009CB46154850F82100C0F3892213481F
:1028200030F82100C0F30903624508D1434506DCB6
:1028300002FB03F000EBD07E4FEA6E099346A14500
:1028400003D9012001904C46DA46481C81B2022986
:10285000DDDB02E00020BDE8FC8F24B13C603220CB
:102860000AFB00F030600198F5E70000B801002095
:1028700000BF0648C06820F002000449C86000BFDD
:1028800000BF6FF00200086100BF70470008004001
:1028900000BF6FF002000549086100BF00BF084695
:1028A000C06840F00200C86000BF704700040040EC
:1028B00030B50246107A0870087870BB137C507CE3
:1028C00043EA00208880002022E0022303EB8004FA
:1028D00002F110031C5D032303EB800502F11003DA
:1028E0005B5D44EA0324032303EB800502F110033C
:1028F0005B5D44EA0344032303EB800502F110030C
:102900005B5D44EA036401F1080343F82040401C86
:102910008B88C3F302338342D7D830BD10B501464C
:102920000A788888C0F30234087900F01F03052A6A
:1029300001D1012010BDFAB9C4B9062B10D004DCB6
:10294000012B07D0032B0FD10CE0082B06D00D2B49
:102950000AD101E00320EDE70220EBE70420E9E7DC
:102960000820E7E70520E5E700BF05E0012B01D1DE
:102970000920DFE700BF00BF0020DBE70648007842
:10298000072803D100200449087004E002480078B9
:10299000401C014908707047C40100200146002016
:1029A000102929D2DFE801F0080A0C0E10121416C3
:1029B000181A1C1E202224261E201FE009201DE0BC
:1029C00014201BE0152019E00A2017E00B2015E069
:1029D0000E2013E00F2011E012200FE013200DE075
:1029E00016200BE0172009E01A2007E01B2005E065
:1029F0001C2003E01D2001E01E2000BF00BF704727
:102A000001460020A1F10902162A2CD2DFE802F0CB
:102A10000D13152B2B17192B2B1B1D0F111F212BE2
:102A20002B232527290B00201FE001201DE0022079
:102A30001BE0032019E0042017E0052015E0062024
:102A400013E0072011E008200FE009200DE00A2024
:102A50000BE00B2009E00C2007E00D2005E00E2024
:102A600003E00F2001E0002000BF00BF704700001E
:102A7000F0B503460024002029E0B4B953F82050F3
:102A8000022D01D1012421E053F82050032D0AD159
:102A90000026144D2F682D686D1CDFF848C0CCF857
:102AA0000050D65512E0002410E053F82050022DBB
:102AB0000BD101260B4D2F682D686D1CDFF824C04B
:102AC000CCF80050D655002400E00024401C884279
:102AD000D3D304480068952801D20220F0BD00201D
:102AE000FCE700001C00002030B503460C460648F9
:102AF000806840F00100044DA860914201D100209F
:102B000030BD0220FCE700000030024070B50446F2
:102B10000D460648806840F0010004498860294657
:102B20002046FDF7B3FBC643304670BD003002407F
:102B300001460B784A7803EB42038A7803EB820361
:102B4000CA7803EBC2030A7903EB0212D0B27047D2
:102B500000F001020A70C0F340024A70C0F3800224
:102B60008A70C0F3C002CA70C0F300120A717047C5
:102B70002DE9F041044600F0E9F9002513E04A4848
:102B800050F825004FF47A7148434821B0FBF1F02A
:102B9000454941F8250051F8250000F08BF94249DC
:102BA00041F825006D1C414800688542E7D3404A42
:102BB0003E4801683C48FFF75BFF18B93D48006894
:102BC000206002E00220BDE8F0813A480168384800
:102BD00000F090F918B938480068606001E0022000
:102BE000F1E7334960684618304600F0C1F918B97A
:102BF00032480078207201E00220E4E7207A0528BC
:102C000003D1012000F0AAFA31E0207A68BB01204C
:102C100000F0A4FA2068A0F159070A20B7FBF0F0F1
:102C2000001FE0601436264A3946304600F04AF864
:102C3000C8B9234904F11000E268FDF7C3FA20493E
:102C4000E068095C401C1E4A105C41EA0021E06813
:102C5000801C105C41EA0041E068C01C105C41EA45
:102C60000060206303E00220ADE70220ABE7E068EC
:102C700000EB8000282101EB40000644304600F0C4
:102C800052F818B9012084F8340001E002209AE7D4
:102C900004F11000226BE168FFF726FF08B900205D
:102CA00091E702208FE7000030020020140000208E
:102CB000580E00201C0000202000002024000020CE
:102CC000E80D00202DE9F04705460F469046052007
:102CD000B7FBF0F0C0F34706002E22DD1F2E20DAEE
:102CE000002419E0610001EB81014819FFF720FF82
:102CF0008146FFF785FE8246012101EB440101EB8D
:102D000081014819FFF714FF8146FFF779FE4AEA6F
:102D1000001008F80400641CB442E3D30020BDE8AE
:102D2000F0870220FBE770B504462046FFF700FF5E
:102D300005460D2D01D1002070BD0220FCE70000EA
:102D400070B592B005460C46002007E0002104F85B
:102D50001010012101EB4002A154401C2028F5D3A2
:102D6000402052490860287A052817D1002608E03B
:102D700006EB860204F1400011180720FFF7E8FE79
:102D8000761C032EF4D304F14F011920FFF7E0FE67
:102D90004648006814304549086077E0287AB0B9A1
:102DA000002608E006EB860204F140001118182006
:102DB000FFF7CEFE761C032EF4D304F14F01112051
:102DC000FFF7C6FE3948006814303849086000260D
:102DD00014E005F11001895D01F00F00FFF7DEFD41
:102DE00001AA02F8160005F11001895D0809FFF734
:102DF000D5FD7100491C01AA5054761CE868B04208
:102E0000E7D8002609E006EB860304F1540299187E
:102E100001AA905DFFF79CFE761CE868B6EB400FB8
:102E2000F1D3E86800EB80002049096801EB40001D
:102E30001E490860002616E0B200296BD14001F05F
:102E40000F00FFF7ABFD10A98855EA6802EB82037B
:102E5000174A02EB430206EB8603D11810AA905DD5
:102E6000FFF776FE761C082EE6D31048006828305F
:102E70000E4908600846006821180D20FFF768FE1B
:102E80000A480068401D0949086000BF0020074942
:102E900009686054002105480068401C215403481B
:102EA0000068801C0149086012B070BDA8010020B4
:102EB000AC0E00200146C82901D2002018E0C82924
:102EC00004D3B1F57A7F01D2012011E0B1F57A7F08
:102ED00004D3B1F5166F01D2022009E0B1F5166FE7
:102EE00005D341F27072914201D2032000E0042028
:102EF0007047000030B5024600231078012803D146
:102F000001230220104C206018460EE0145C54B9D6
:102F1000441C145D012C06D1401C0B4C2468A41CDD
:102F2000094D2C6000E002E0401C8842EED300BF57
:102F300005480068202803D803480068422801D2C9
:102F4000002030BD0220FCE72000002000200449C2
:102F50000860044908700449086004490860704723
:102F600010000020180000201C000020200000207D
:102F700038B504462046FFF7DBFD8DF80000601DE4
:102F8000FFF7D6FD8DF8010004F10A00FFF7D0FD30
:102F90008DF8020004F10F00FFF7CAFD8DF8030061
:102FA0009DF8000018280FD19DF8010018280BD1BA
:102FB0009DF80200182807D19DF80300112803D1BD
:102FC00000200D49087038BD9DF80000072810D179
:102FD0009DF8010007280CD19DF80200072808D1B0
:102FE0009DF80300192804D105200349087000202A
:102FF000E9E70220E7E700002400002070B505465D
:103000000E4600241EE0285D90B101211348FEF712
:1030100007FB002000E0401C0E28FCD301210F48D4
:10302000FEF7FEFA002000E0401C0C28FCD308E06C
:1030300001210A48FEF7F4FA002000E0401C1E2897
:10304000FCD3641CB442DED3002000E0401C2828DE
:10305000FCD301200149886100BF70BD0008004811
:1030600070B505460C46A888C0F30236287810B122
:10307000052857D14FE006EB8600972101EBC000F1
:1030800020604020606000202072022000EB86005B
:10309000E06028792074A888010A617400202EE07D
:1030A00005F1080111F82020022101EB800304F151
:1030B0001001CA5405F1080131F82010C1F30723AB
:1030C000022101EB8001491C04F11002535405F167
:1030D000080151F82010C1F30743022101EB8001E0
:1030E000891C535405F1080151F82010090E0222E1
:1030F00002EB8002D21C04F110039954401CB04230
:10310000CED304F11000E168FFF700FD2063012039
:1031100084F8340007E056202060402060600520DD
:10312000207200E000BF00BF70BD00000020064913
:1031300008700649087006490870064908700120A1
:103140000549087000207047C4010020C801002014
:10315000C9010020CA010020CB01002010B504469F
:10316000012C04D10D4800780D49087001E0FFF7EB
:1031700005FC0C4A0A480178204600F085F80A4907
:103180000848FFF76DFF09490748FFF7D9FD0848D0
:1031900001680648FFF732FF002010BDC50100207E
:1031A000C4010020E010002084100020580E0020F0
:1031B000A801002010B5094800F09AF8084907480E
:1031C000FFF74EFF07490648FFF7BAFD06480168BA
:1031D0000448FFF713FF002010BD0000E01000209E
:1031E00084100020580E0020A801002001B582B0F4
:1031F000FFF7C4FB0B48012302AA00900A4801789C
:10320000022000F052F809490648FFF729FF084953
:103210000648FFF795FD074801680548FFF7EEFEF1
:1032200000200EBDE0100020C4010020841000200A
:10323000580E0020A801002038B504460D46FFF7BF
:103240009DFB0C48EBB2224600900B48017804200D
:1032500000F02BF809490748FFF702FF0849074823
:10326000FFF76EFD074801680548FFF7C7FE00201D
:1032700038BD0000E0100020C401002084100020B0
:10328000580E0020A801002000231370938053687B
:1032900060F304035360536823F0C003403353606A
:1032A000536861F34B2353607047F0B50546059CA6
:1032B00000202070A080606865F304006060606892
:1032C00020F0C00040306060606861F34B206060B7
:1032D000606863F30E306060002006E052F82070F2
:1032E00004F1080646F82070401C9842F6D3F0BD61
:1032F00005210170704710B50446FDF739F9B0F5A6
:103300007A6F05DD01202070FFF7C2FA012010BDA1
:103310000020FCE77047704710B50446FDF7A8FD94
:10332000B8B125480068401C234908600846006879
:10333000012807D1132020700720FFF70FFFFFF7A8
:1033400041F804E000201C4908601420207001208E
:1033500010BD1A48007860B300201849087018485A
:10336000FFF706FC08BB17491548FFF7A1FA1548F7
:10337000FFF7D4FA1449086008460068012802D013
:1033800003280ED102E00F2020700DE00D48808848
:10339000C0F342200D490978884201D10B202070EA
:1033A00002E00820207000BF00BFFFF771FA012083
:1033B000CEE70020CCE7000004000020A40100209C
:1033C0004C100020BC10002000000020C401002090
:1033D00070B504460D460720FFF7C0FE0120FEF73A
:1033E000FBFF70BD10B5FFF71BF810BD10B504460C
:1033F000FDF73EFDC0B125480068401C2349086028
:1034000008460068012808D11320207002212048B6
:10341000FFF712FFFEF7D6FF04E000201B4908600B
:1034200014202070012010BD1A48007860B30020DD
:10343000184908701848FFF79BFB08BB1749164846
:10344000FFF736FA1548FFF769FA1549086008468C
:103450000068012802D003280ED102E00F2020705E
:103460000DE00E488088C0F342200E49097888425A
:1034700001D10A20207002E00820207000BF00BFA8
:10348000FFF706FA0120CEE70020CCE70400002079
:1034900008000020A40100204C100020BC100020D7
:1034A00000000020C401002070B504460D46022132
:1034B0000348FFF7C1FE0120FEF78EFF70BD00003C
:1034C0000800002010B5FEF7ABFF10BD10B5044694
:1034D000FDF7CEFCA0B124480068401C22490860DA
:1034E00008460068012804D113202070FEF76AFF07
:1034F00004E000201C49086014202070012010BD49
:103500001A48007870B30020184908701848FFF76F
:103510002FFB08BB17491648FFF7CAF91548FFF7F4
:10352000FDF91549086008460068012802D0032803
:103530000ED102E00F2020700DE00E488088C0F30D
:1035400042200E490978884201D10B20207002E008
:103550000820207000BF00BFFEF76CFFFFF798F94E
:103560000120CCE70020CAE704000020A4010020CD
:103570004C100020BC10002000000020C4010020DE
:1035800070B504460D460948007802280ADA074853
:103590000078401C05490870FFF70CFE0120FEF77B
:1035A0001BFF02E000200249087070BDC601002028
:1035B000CB01002010B5FEF733FF10BD10B5044657
:1035C000FDF756FCA0B124480068401C2249086061
:1035D00008460068012804D113202070FEF7F2FE8F
:1035E00004E000201C49086014202070012010BD58
:1035F0001A48007870B30020184908701848FFF77F
:10360000B7FA08BB17491648FFF752F91548FFF7F4
:1036100085F91549086008460068012802D003288A
:103620000ED102E00F2020700DE00E488088C0F31C
:1036300042200E490978884201D11220207002E010
:103640000820207000BF00BFFEF7F4FEFFF720F94E
:103650000120CCE70020CAE704000020A4010020DC
:103660004C100020BC10002000000020C4010020ED
:1036700070B504460D461020FFF770FD0120FEF7DF
:10368000ABFE70BD7047000010B50446FDF7F0FBBF
:1036900018B113202070012010BD2448007818B103
:1036A0000C2020700120F7E72148007800283BD04B
:1036B00000201F4908701F48FFF75AFA80BB1E49B7
:1036C0001C48FFF7F5F81C48FFF728F91B4908606C
:1036D00008460068012804D0042805D009281BD119
:1036E0000EE00F2020701AE013488088C0F34220BB
:1036F000134908700120FFF731FD092020700EE00A
:103700000D488088C0F342200D4908700120FFF762
:1037100025FD0220207002E01220207000BF00BFB3
:10372000FFF7B6F80120B7E70020B5E7CA0100208F
:10373000A40100204C100020BC100020000000203C
:10374000C501002070B504460D460348007810B14D
:103750006420FEF741FE70BDC901002010B5FEF7E0
:103760005FFE10BD10B50446FDF782FBC0B14948AD
:103770000068401C4749086008460068012808D1D5
:103780001320207044490868FFF730FDFEF71AFE49
:1037900004E000203F49086014202070012010BD83
:1037A000FDF77EFB18B1152020700120F7E73B489C
:1037B000007800286CD00020384908703848FFF79E
:1037C000D7F9002864D13749087037493448FFF7E2
:1037D0006FF83548FFF7A2F83449086008460068DA
:1037E00008284ED2DFE800F04D044D0A4D1A263865
:1037F0000F202070FFF74CF80120D0E72A4880887E
:10380000C0F342202A490978884206D1FEF712FE09
:103810001B20FEF7F3FDFFF73BF838E022488088D5
:10382000C0F342202349087003202070FFF730F8CE
:103830000120B4E71C488088C0F342201D4908706D
:103840001D48007810B10420207001E00520207090
:10385000FFF71EF80120A2E713488088C0F342203A
:10386000144908701448007828B104202070012001
:103870000C49087001E005202070FFF709F80120CD
:103880008DE708202070FFF703F8012087E700BFCD
:10389000002084E704000020C0010020A4010020D3
:1038A0004C100020C9010020BC10002000000020A6
:1038B000C4010020C5010020C801002070B586B0F9
:1038C00005460E4600200A49087001A8FCF72EFDA7
:1038D0000446E0B2074A01A9FCF776FD05490868ED
:1038E000FFF784FC0120FEF777FD06B070BD0000F5
:1038F000C6010020C001002010B5FEF791FD10BDEB
:1039000010B50446FDF7B4FAA0B124480068401C85
:103910002249086008460068012804D1132020705D
:10392000FEF750FD04E000201C49086014202070C0
:10393000012010BD1A48007870B3002018490870A3
:103940001848FFF715F908BB17491648FEF7B0FFEE
:103950001548FEF7E3FF154908600846006801288E
:1039600002D003280ED102E00F2020700DE00E4897
:103970008088C0F342200E490978884201D10B208B
:10398000207002E00820207000BF00BFFEF752FD4B
:10399000FEF77EFF0120CCE70020CAE704000020EC
:1039A000A40100204C100020BC10002000000020CA
:1039B000C401002070B504460D460848007802286E
:1039C0000ADA06480078401C044908700D20FFF709
:1039D000C5FB0120FEF700FD70BD0000C7010020FF
:1039E00010B5FEF71DFD10BD10B50446FFF79EFB98
:1039F00028B900202070FEF73BFF012010BD0020F9
:103A0000FCE700000022014B1A707047C70100203C
:103A100010B5FEF705FD10BD01461020087001200D
:103A2000704770477047000010B50446FDF720FA54
:103A300018B115202070012010BD1948007860B31E
:103A40000020174908701748FFF792F808BB16497D
:103A50001448FEF72DFF1448FEF760FF1349086075
:103A600008460068012802D10F20207011E00F489D
:103A7000006808280BD10C488088C0F342200C490C
:103A800008700120FFF76AFB0720207001E0082082
:103A90002070FEF7FDFE0120CEE70020CCE70000FD
:103AA000A40100204C100020BC10002000000020C9
:103AB000C501002070B504460D464FF4FA70FEF7BC
:103AC0008BFC70BD10B5FEF7ABFC10BD10B5044605
:103AD000FDF7CEF918B115202070012010BD19484E
:103AE000007860B30020174908701748FFF740F8C6
:103AF00008BB16491448FEF7DBFE1448FEF70EFF1C
:103B00001349086008460068012802D10F20207080
:103B100011E00F48006809280BD10C488088C0F3D9
:103B200042200C4908700120FFF718FB022020708A
:103B300001E008202070FEF7ABFE0120CEE7002058
:103B4000CCE70000A40100204C100020BC10002095
:103B500000000020C501002070B504460D464FF45A
:103B6000FA70FEF739FC70BD10B5FEF759FC10BDB8
:103B700000BFFEE702E008C8121F08C1002AFAD100
:103B800070477047002001E001C1121F002AFBD1DD
:103B90007047000008B501203F490870FCF73AFE65
:103BA000FEF754FCFEF732F9FEF744F8FEF7F0F8A2
:103BB000FDF73EFFFDF7BAFFFEF77AF8FEF71EFAB3
:103BC000FEF7BCF8FEF7DAFA4FF400713348FDF760
:103BD000E9FC01213148FDF7E5FC03210A20FCF74F
:103BE00079FC2F490860FEF7DFFBFEF727FB00207A
:103BF0002C4908702C4908709DF801109DF80000B0
:103C00002A4B294F3F7803EB07131A68904741E08E
:103C10002148007800283DD0694623480078FCF709
:103C20006FFC78B3204800780C2833DA9DF8000048
:103C300016282FDA1D481C49097800EB0110C468CA
:103C4000002522E014F815009DF8001088421AD1D2
:103C500004EB450046781549134A127801EB02112E
:103C6000486880479DF801109DF800000F4B03EB5A
:103C700006131A6890470C4800780A4908700A48E9
:103C8000067006E006E0681CC5B214F81500172897
:103C9000D8D100BFBCE70000CB01002000080048DD
:103CA000180200201502002016020020DC0000206F
:103CB000081C3044586C80000000000404043C3CA4
:103CC00000000800000008000800000800000008CC
:103CD000000000020406080A0C101400010203048C
:103CE0000506080A043D000800000020300200001C
:103CF000300200084C3E0008300200201013000083
:103D0000843B00088114969001051896C003102387
:103D1000DC0523E02E23204E238813235046032363
:103D200030752808010F09170D01020668150203F6
:103D300015080F09080A170D0304040505021303EB
:103D4000140A123C0705080C181A170D09060C076F
:103D50000D03150302030F09120B170D0A050F09B6
:103D6000130614242A0B0A2A070A1B0E090A17082D
:103D70001408170D1029341A11062B130A102A12D1
:103D8000242A0B242113053A1B08110413E9391BBB
:103D90000860BB1315331B08170413F7321B0866A2
:103DA0001013593B1B0869041ACD241A6C1013BD5B
:103DB000381B08F9041365371B0876101AB5181A52
:103DC000C5041A29041A88101A45181A5D041389A3
:103DD000361B0892101BA9342019041AED541AA29C
:103DE000101AD1081AE5041A19041AAC10138135F7
:103DF0001B08B5041ACD241AB6101A23481A250434
:103E00001A19042AC06019981AE1041A01041AC682
:103E1000101A71581A85041ABD341AD010011C14D6
:103E2000969001051896C0031010082C91010A2CD9
:103E3000D102142CC103142CB1048C4541061C047E
:0C3E400029B1051313127A3201696900E0
:040000050800018965
:00000001FF
